:020000040800F2
:10000000C82400203DAE000845AE000847AE0008F9
:1000100049AE00084BAE00084DAE000800000000DD
:100020000000000000000000000000004FAE0008CB
:1000300051AE00080000000053AE00083102000875
:1000400057AE000857AE000857AE000857AE00087C
:1000500057AE000857AE000857AE000857AE00086C
:1000600057AE000857AE000857AE000857AE00085C
:1000700057AE000857AE000857AE00083F4E0008C4
:1000800057AE000857AE000857AE000857AE00083C
:1000900057AE000857AE000857AE00088D4F000855
:1000A00057AE000857AE000857AE000857AE00081C
:1000B00057AE000857AE000857AE000857AE00080C
:1000C00057AE000857AE000857AE000857AE0008FC
:1000D00057AE000857AE000857AE000857AE0008EC
:1000E00057AE000857AE000857AE000857AE0008DC
:1000F00057AE000857AE000857AE0008874F0008FB
:1001000057AE00089144000857AE000857AE0008EB
:1001100057AE000857AE000857AE000857AE0008AB
:1001200057AE000857AE000857AE000857AE00089B
:1001300057AE000857AE000857AE000857AE00088B
:1001400057AE000857AE000857AE000857AE00087B
:10015000814F00089744000857AE000857AE0008CA
:1001600057AE000857AE000857AE000857AE00085B
:1001700057AE000857AE000857AE00080000000058
:1001800057AE000857AE000800F002F800F041F842
:100190000AA090E8000C82448344AAF10107DA45E2
:1001A00001D100F036F8AFF2090EBAE80F0013F0F3
:1001B000010F18BFFB1A43F0010318475CC200008F
:1001C0007CC20000103A24BF78C878C1FAD8520720
:1001D00024BF30C830C144BF04680C6070470000C1
:1001E0000023002400250026103A28BF78C1FBD840
:1001F000520728BF30C148BF0B60704764290AF01E
:100200005587002070471FB50BF0F4FD1FBD10B5DA
:1002100010BD0BF026F91146FFF7F5FF00F033F89B
:100220000BF044F903B4FFF7F2FF03BC0BF04CF9F9
:1002300005F0D1BA70B505464FF48074FE4E2146E4
:10024000304606F001F90028F9D04FF40076FB4B58
:100250003246FB49284603F0A6FBF84C103CD4E993
:1002600003010844E060F64804F067FEF34B3246B1
:10027000F449284603F097FBD4E903010844E06001
:100280004FF0FF3070BDADF50C7D002083468A90A5
:1002900005F070FA00F0BAF904F0D3FE05F038F872
:1002A00004F0B7FF05F052F804F016FEE34CE44802
:1002B000103CE5A1A27814380AF0BCFEA07840EA10
:1002C00000210B2004F016FF02F06AF900F01EFA7C
:1002D000002001F06BFE02F054FC04F0FBF904F086
:1002E000B3FADFF870934FF0010A0026D34D103DAA
:1002F000687800284AD06868401C68606868B0F573
:10030000805F14D36E60E86864214843A968B0FB3D
:10031000F1F2CB48D0A128380AF08CFEC84A4FF43D
:100320007843283AC8212820009601F050FF04F0B5
:1003300081FE58BB6878012812D085F801A0C0481A
:10034000296904F0FAFDBD4BBE494FF4007201A8C3
:1003500003F029FBD5E903010844E86059B115E031
:1003600002206870B748296904F0E7FDB34B4FF4E9
:100370000072B349EBE76E706E60EE600A214FF4D5
:10038000FC63B9A20846009601F021FF2021BA487B
:1003900006F05AF890B128780128A7D102202870D9
:1003A00059468A9804F01FFA0446401C66D0CCB126
:1003B000012C1BD0207A20281BD0D6E002F031FA85
:1003C0000146AE4AAE4802F074FBAD494888F028B9
:1003D0008CD80988B1F5A07F88D885F800A083461D
:1003E0008A9183E704F086F90028E3D104F02CFA1F
:1003F000E0E704F10900A3A1074604F0DCF9E0B34B
:10040000384604F0B3F90146012201A803F031FA9D
:100410000028D2D1384604F0A9F902464FF47847B3
:100420000A213B460846009601F0D1FE85F801A05E
:10043000824B4FF40072824901A803F0B4FA80485D
:10044000417A027A0A3101EBC211C27901EB8231A1
:100450008279407901EB4251C00600D50A310498F7
:10046000401AA86001A803F05FFC01A8FFF7E2FEB4
:10047000E86864214843A96801E010E082E0B0FB2D
:10048000F1F26F4874A128380AF0D4FD6C4A3B465B
:10049000283AC8212820009601F099FE33E07AA17D
:1004A000384604F088F988B3384604F05FF901460D
:1004B000012201A803F0DDF938BB384604F056F9F3
:1004C00002464FF478470A213B460846009601F061
:1004D0007EFE85F801A001A8FFF7ACFEE868642164
:1004E0004843A968B0FBF1F255485BA128380AF0EF
:1004F000A1FD534A3B46283AC8212820009601F026
:1005000066FE0498A8606E60EE602EE0FFE75FA1D3
:10051000384604F050F940B3384604F027F9014654
:10052000012201A803F0A5F9F8B9444B40F20A7280
:10053000484901A803F037FAB8B909F102080027C1
:100540000FE0002508E007FB0051A8B238F81120A1
:10055000B9B201F095FD6D1C99F80000A842F2DCDB
:100560007F1C99F80110B942EBDC207A10287FF447
:1005700038AF04F1090004F0D9F80028F7D104F0ED
:1005800063F9B3E659468A9804F05DFB01281DD053
:10059000022820D00328F4D168780028F1D06E70AA
:1005A0006E60EE6004F0B4FEA87840EA00210B20F3
:1005B00004F0A0FD0A214FF4FC632BA2084600962C
:1005C00001F005FE642000F093F88FE6A878F0288B
:1005D000D7D20A3803E0A8780028D2D00A30C2B2B5
:1005E0001748AA7018A114380AF024FD144A4FF4D1
:1005F0007843143AB4212820009601F0E8FDA87849
:1006000040EA00210B2004F075FD6FE630B520486C
:1006100093B00025016841F080510160006800F04E
:10062000805011901B48016841F4804101600068CE
:1006300000F4804011902FE00000024010000020E4
:100640005001002050030020766F6C3A202533645F
:100650000000000050050020436F6D703A202533E4
:10066000642070657200000053746F7020506C61DC
:10067000792E2E2E2E2E000000080240601300203E
:10068000280000204D5033005741560042494E008B
:1006900040380240007000400120009000040190AA
:1006A00002248001CDE90640082008904FF4A8708C
:1006B000CDE9090407200B90684607F05EF90CA904
:1006C0000D2081E831004FF4A0500F90E00210900F
:1006D00005210CA807F004FB13B030BD034A02EB60
:1006E00001111022A1F500710AF0A3BDFEBD0008A2
:1006F000002247F6FF7306E00021491C89B29942A7
:10070000FBD3521C92B28242F6D370472DE9F05FC0
:10071000FE4C01F07FFD641EFDD201F0CBFD642094
:10072000FFF7E6FF4FF0C048F9490020A8F80000A5
:10073000F84802880846A2F51344428041F21803A3
:100740004FF4807C41F2300A40F2072040F20776F5
:1007500040F23F1740F23319253C43D0A2F5134431
:10076000283C3FD0A2F513444FF41C5B203C7DD0C5
:10077000B2F5134FFBD0A2F51343313B77D0A2F56E
:1007800019454FF4004440F20553193D70D0A2F5CD
:10079000A855053D6DD0D31AFCD0A2F50943893B7D
:1007A00068D0A2F50943993B7ED0A2F5A843083B47
:1007B0007BD0A2F58A43313B78D0A2F58A43353B02
:1007C00075D0472A74D0A2F5EE43833B71D06720E1
:1007D000A8F80000CF4C20884880472801F0748298
:1007E00001F0C3BB01220A70B1224446A8F80020E0
:1007F000C84D2A884A80A52A7ED002220A70032189
:1008000021802B80E52147F6F00221802A800121FA
:100810002180A5F800C002214FF4E06221802A80E7
:1008200003212180A5F800A00421002221802A8034
:10083000082121802880092121802A800A21218005
:100840002A800C2121802A800D21002021802880EF
:100850000F20002120802980102100202180288065
:100860001121072021802880122104E08FE1AFE0D0
:1008700042E2E2E2E0E3002021802880132121808F
:1008800028800720012120802980C820FFF730FF21
:10089000102041F2900120802980112040F2272170
:1008A00020802980322005E0FEE3FEE3FEE3FEE344
:1008B000FEE3FEE3FFF71CFF12211F2021802880AA
:1008C0003220FFF715FF13204FF4A8512080298014
:1008D00029212720218028802B210D20218028807C
:1008E0003220FFF705FF20210020218028802121D0
:1008F00021802880302000E063E0002120802980D2
:10090000312020802E80322040F207312080298043
:1009100035204FF400712080298036210820218065
:100920002880372104202180288038210020218040
:100930002880392020802E803C20022120802980A0
:100940003D2041F604512080298050210020218043
:1009500028805121EF2021802880522100202180F1
:100960002880532020802F8060204FF42741208052
:10097000298061210120218028806A210020218096
:100980002880802000212080298081210020218052
:100990002880822121802880832121802880842032
:1009A000002120802980852100202180288090211D
:1009B00010202180288092204FF4C061208029805F
:1009C000FEE303220A70B12200212280298016E76B
:1009D00005200870E72041F214014446A8F8000001
:1009E0004C4D29800120A8F80000A5F800C0022085
:1009F0000102A8F8000029800320A8F80000A5F84B
:100A000000A00820891C2080298009210020218045
:100A100028800A21218028800C21218028800D2116
:100A2000218028800F21218028801021218028808A
:100A30001120072120802980122100202180288078
:100A4000132121802880C820FFF752FE102041F298
:100A5000906120802980112040F227212080298068
:100A60003220FFF745FE12210C2021802880322001
:100A7000FFF73EFE13204FF40061208029802921DA
:100A80001120218028802B210B20218028803220DA
:100A9000FFF72EFE202100202180288021212180A7
:100AA000288030212180288031204FF483722080DB
:100AB0002A80322000212080298035204FF40171C6
:100AC00020802980362041F20A6120802980372049
:100AD00020802E80382020802A80392020802E807F
:100AE0003C2040F20241208029803D2040F60F4109
:100AF0002080298050210020218028805121EF2052
:100B00002180288052210020218005E0FFFF1F0066
:100B100014000020000002602880532020802F80D5
:100B200060202080A5F800B061200121208029806C
:100B30006A210020218028808020002120802980B7
:100B4000812100202180288082212180288083210A
:100B5000218028808421218028808521218028806F
:100B60009021102021802880922029152080298022
:100B700007212120218028803220FFF7B9FD07219D
:100B80006120218028803220FFF7B2FD18E7002481
:100B90000C70A8F80040FE4D2C800120A8F8000041
:100BA000A5F800C002204FF4E061A8F800002980F9
:100BB0000320A8F800002B800420A8F800002C8057
:100BC000082040F20221A8F8000029800920A8F896
:100BD00000002C800A20A8F800002C800C210120A5
:100BE000A8F8001028800D20A8F800002C800F2005
:100BF000A8F800002C806420FFF77AFD072040F25F
:100C00000111A8F8000029806420FFF771FD102071
:100C10004FF48651A8F80000298011210720A8F878
:100C20000010288012200A01A8F800002A80132052
:100C30004FF43061A8F8000029802920A8F80000AE
:100C40002C802B2044F21001A8F8000029805020AD
:100C5000A8F800002C805120EF21A8F8000029807E
:100C60005220A8F800002C805320A8F800002F8004
:100C70006020A8F80000A5F800B061210120A8F8C4
:100C8000001028806A20A8F800002C808020A8F896
:100C900000002C808120A8F800002C808220A8F879
:100CA00000002C808320A8F800002C808420A8F865
:100CB00000002C808520A8F800002C8090211020B6
:100CC000A8F8001028809220A8F800002C8093211A
:100CD0000120A8F8001028809520A8F800002A809C
:100CE0009720A8F800002C809820A8F800002C80FD
:100CF000072040F27311F6E20F2008702820062129
:100D0000A8F80000A248018000220121A8F80020D4
:100D1000018010220021A8F8002001800121A8F8FC
:100D2000001047F2EF2101800221A8F80010011500
:100D30000180032146F63822A8F800100280112114
:100D400046F67402A8F80010028000210F22A8F8CD
:100D5000002001800B2145F20832A8F80010028023
:100D60000C220321A8F8002001800D220A21A8F8F6
:100D7000002001800E214FF43852A8F800100280A4
:100D80001E22BE21A8F8002001802521A8F800100D
:100D9000048026219202A8F80010028027227821E0
:100DA000A8F8002001804E220021A8F80020018030
:100DB0004F22A8F800200180122140F6D902A8F89D
:100DC0000010028030220021A8F80020018031218B
:100DD0004FF48272A8F8001002803221A8F80010A7
:100DE000A0F800C03321A8F8001040F205310180BE
:100DF0003421A8F8001003803521A8F8001040F233
:100E0000053101803621A8F80010068037214215EF
:100E1000A8F8001002803A214FF49052A8F8001070
:100E200002803B214FF40062A8F8001002800722E4
:100E30003321A8F800200180D2E40B20087007219C
:100E400000204446A8F80010514D28803220FFF7BA
:100E50004FFC12204FF48E7120802980A4210120A4
:100E60002180288008210F20218028800A21082045
:100E7000218028800D2121802880302020802E8014
:100E80003121072021802880322040F20361208018
:100E9000298033204FF4E0682080A5F800803420BA
:100EA00040F20221208029803521022021802880E3
:100EB000362041F60F7120802980372020802E8037
:100EC00038210020218028803921218028803A2063
:100ED00020802E803B210020218028803C2007217B
:100EE000208029803D210020218028803220FFF7AA
:100EF000FFFB0721012021802880172121802880E5
:100F00003220FFF7F5FB10204FF4BD5120802980DF
:100F1000112040F217212080298012204FF48F7178
:100F20002080298013204FF47061208029802A219D
:100F300000202180288029210A2021802880122059
:100F40004FF49F712080298050210020218028802B
:100F50005121EF20218028805221002021802880EB
:100F6000532020802F8060202080A5F800B06121D0
:100F70000120218028806A21002021802880802172
:100F8000218028808121218028808221218001E008
:100F90000000026028808321218028808421218014
:100FA0002880852000212080298090201321208006
:100FB0002980922069152080298093210520218095
:100FC0002880952100202180288097212180288059
:100FD000982000212080298001202080A5F800C0D1
:100FE00002202080A5F8008003202080A5F800A022
:100FF0000420208029800C210020218028800F21BE
:101000002180288020212180288021212180288082
:101010000721212021802880C820FFF769FB0721B4
:10102000612021802880C820FFF762FB072040F262
:10103000731120802980FFE607200870002101201D
:10104000A8F80010FE4D28803220FFF751FB032046
:10105000A8F800004AF6A40028803220FFF748FBD9
:101060000C200021A8F8000029803220FFF740FB67
:101070000D20A8F8000040F60C0028803220FFF771
:1010800037FB0E204FF42C51A8F8000029803220A5
:10109000FFF72EFB1E21B020A8F800102880322078
:1010A000FFF726FB012005E020E1FFE1B8E278E34D
:1010B000FBE3FDE342F63F31A8F80000298032202F
:1010C000FFF716FB02202915A8F80000298032201E
:1010D000FFF70EFB10210020A8F800102880322016
:1010E000FFF706FB112046F27001A8F800002980E6
:1010F0003220FFF7FDFA05210020A8F80010288013
:101100003220FFF7F5FA06200021A8F80000298018
:101110003220FFF7EDFA16204EF61C71A8F80000F9
:1011200029803220FFF7E4FA17210320A8F80010E5
:1011300028803220FFF7DCFA0721A8F80010A5F874
:1011400000903220FFF7D4FA0B210020A8F80010FD
:1011500028803220FFF7CCFA0F210020A8F80010D9
:1011600028803220FFF7C4FA41210020A8F800109F
:1011700028803220FFF7BCFA42210020A8F8001096
:1011800028803220FFF7B4FA48210020A8F8001088
:1011900028803220FFF7ACFA4920A8F800002F8001
:1011A0003220FFF7A5FA4A210020A8F80010288075
:1011B0003220FFF79DFA4B210020A8F8001000E034
:1011C000FDE328803220FFF793FA44204FF46F416B
:1011D000A8F8000029803220FFF78AFA4521002074
:1011E000A8F8001028803220FFF782FA4620A8F8DD
:1011F00000002F803220FFF77BFA3020A8F8000093
:101200002E803220FFF774FA3120A8F800004FF446
:10121000017028803220FFF76BFA3220A8F8000016
:101220004FF4017028803220FFF762FA332040F239
:101230000256A8F800002E803220FFF759FA342019
:10124000711DA8F8000029803220FFF751FA3520DF
:10125000A8F800004FF4017028803220FFF748FA08
:101260003620A8F800004FF4017028803220FFF7E4
:101270003FFA3720A8F800002E803220FFF738FA16
:101280003A2040F20236A8F800002E803220FFF704
:101290002FFA3B20A8F800002E803220FFF728FA12
:1012A00023200021A8F8000029803220FFF720FA2F
:1012B00024200021A8F8000029803220FFF718FA26
:1012C0002520A8F800002C803220FFF711FA4F21CA
:1012D0000020A8F8001028804E21A8F800102880CF
:1012E000112046F25801A8F80000A3E606220A7071
:1012F0002820A8F800005248028000230121A8F805
:10130000003001800321A8F800104AF6A461018092
:101310000C230421A8F8003001800D230C21A8F82B
:10132000003001800E21A8F800104FF420510180F8
:101330001E23B521A8F8003001800121A8F8001073
:1013400043F63F31018002210315A8F80010038005
:1013500010230021A8F800300180112146F6300347
:10136000A8F80010038005230021A8F800300180B0
:10137000A8F80020018016214EF61C72A8F8001073
:10138000028007223321A8F8002001800B220021CF
:10139000A8F8002001800F22A8F800200180412237
:1013A000A8F8002001804222A8F8002001804822ED
:1013B000A8F8002001804921A8F8001007804A22DF
:1013C0000021A8F8002001804B22A8F8002001800D
:1013D00044214FF46F42A8F80010028045220021FA
:1013E000A8F8002001804621A8F8001007804E22AE
:1013F0000021A8F8002001804F22A8F800200180D9
:101400003021A8F800100680312140F20222A8F80D
:10141000001002803221A8F80010911C01803321B5
:1014200040F20252A8F8001002803421531DA8F89F
:10143000001003803521A8F800104FF4017101E07D
:101440000000026001803621A8F800104FF40171FD
:1014500001803721A8F8001002803A2140F20232C0
:10146000A8F8001002803B21A8F800100280232277
:101470000021A8F8002001802422A8F80020018083
:101480002521A8F80010048026214FF4E042A8F896
:101490000010028020214BF2EB02A8F8001002801D
:1014A00027217C22A8F800100280C5E40A220A70D5
:1014B0000121A8F80010FD4CA4F800C002214FF44F
:1014C000E063A8F8001023800321A8F80010A4F816
:1014D00000A004230021A8F8003021800821A8F8EA
:1014E0000010208009200021A8F800002180A8F821
:1014F000002021800C210020A8F8001020800D2160
:10150000A8F8001020800F21A8F8001020803220B9
:10151000FFF7EEF8072040F20111A8F80000218043
:101520003220FFF7E5F8102041F2B061A8F8000082
:10153000218011210120A8F8001020801721A8F88F
:101540000010208012204FF49C71A8F80000218028
:1015500013204FF40061A8F8000021802921092000
:10156000A8F8001020802A21A8F800102080A421CB
:101570000020A8F8001020805021A8F8001020803A
:101580005121EF20A8F80010208052210020A8F857
:10159000001020805320A8F8000027806020A8F8C1
:1015A0000000A4F800B061210320A8F800102080FA
:1015B0006A210020A8F8001020808021A8F80010DF
:1015C00020808121A8F8001020808221A8F8001036
:1015D00020808321A8F80010208084200021A8F812
:1015E0000000218085210020A8F800102080902193
:1015F0001320A8F80010208092210020A8F80010E5
:10160000208093210320A8F80010208095204FF41B
:101610008871A8F800002180072040F2731189E149
:101620000920087000210120A8F800109F4C20809C
:101630001020A8F800004FF4C56020801220062179
:10164000A8F8000021801320A8F8000040F63220FE
:10165000208011214020A8F8001020801521502062
:10166000A8F80010208012201621A8F80000218080
:101670003220FFF73DF81020A8F8000045F2606026
:1016800020803220FFF734F81320A8F8000042F63B
:101690004E2020800120A8F80000A4F800C00220FD
:1016A000A8F80000601520800320A8F8000041F28F
:1016B000300020800820A8F8000040F2022020809E
:1016C0000A210020A8F8001020803021A8F800107E
:1016D0002080312040F20241A8F800002180322011
:1016E0004FF48371A8F80000218033204FF4E061AB
:1016F000A8F80000218034204FF48271A8F800007F
:101700002180352040F20131A8F8000021803620E8
:10171000A8F8000026803720091DA8F800002180C5
:1017200038204FF40271A8F800002180392040F6DB
:101730000B71A8F8000021803220FEF7D9FF41216B
:101740000220A8F8001020806020A8F80000A4F86B
:1017500000B061210120A8F800102080902040F204
:101760001911A8F80000218092204FF48571A8F883
:101770000000218093210420A8F800102080A020E0
:10178000A8F80000A4F800C03220FEF7B1FF07203F
:10179000A8F80000A4F800903220FEF7A9FFA021CD
:1017A000DFE30E20087015213020A8F800103F4C10
:1017B00020809A211020A8F80010208011212020DC
:1017C000A8F8001020801020A8F8000043F228405C
:1017D000208012210220A8F8001020801320A8F8F1
:1017E000000041F2380020802820FEF781FF1221FE
:1017F000A8F8001021802820FEF77AFF1020A8F812
:10180000000043F2204020801320A8F8000043F29B
:10181000450020804620FEF76BFF30210020A8F80D
:1018200000102080312040F20241A8F80000218001
:10183000322040F20731A8F8000021803320C91E71
:10184000A8F80000218034210420A8F8001020808E
:10185000352040F20141A8F8000021803620A8F888
:1018600000002680372040F20531A8F800002180D2
:1018700038204FF4C261A8F8000021803920A8F870
:10188000000021800120A8F8000000022080022032
:101890006115A8F8000021800320A8F80000A4F832
:1018A00000A0082040F6080103E0FEE0000002600E
:1018B00044E0A8F8000021800A21A8F80010208048
:1018C0006020A8F80000A4F800B061210120A8F869
:1018D0000010208090204FF49F71A8F80000218014
:1018E0009220A8F800004FF4807020809320A8F880
:1018F00000004FF480702080A0204FF44051A8F8E1
:1019000000002180A3211020A8F8001020800721CA
:101910000120A8F8001020802120A8F800102080C5
:101920002320A8F8001020803320A8F80010208081
:1019300008464946A8F80000218016E34FF0080C3D
:1019400081F800C0FF2201214446A8F80020FE4D86
:101950002980F321A8F80010A5F800C00121A8F8FB
:101960000010090229800221A8F800104FF4E0615C
:10197000298003212180A5F800A040F20231A4F8BB
:1019800000C02980A4F800C02880092100202180FF
:1019900028800A212180288010212180288011217F
:1019A00005202180288012210020218028801321F9
:1019B000218028803220FEF79BFE102000E070E09E
:1019C00041F2B021208029803220FEF791FE1121C2
:1019D0000720218028803220FEF78AFE12218B20EA
:1019E000218028803220FEF783FE13204FF4B85167
:1019F000208029803220FEF77BFE292122202180B1
:101A000028803021002021802880312020802E80D5
:101A1000322040F2055120802980352040F2071104
:101A20002080298036202080A5F800C037210020A2
:101A3000218028803820208040F202202880392010
:101A40004FF48371208029803C20208040F20220C6
:101A500028803D204FF48161208029803220FEF7CC
:101A600047FE50200021208029805121EF20218035
:101A700028805221002021802880532020802F8020
:101A800060204FF42741208029806121012021809E
:101A9000288090213320218028802B210B20218039
:101AA000288007204946FFF7C4BA0C220A70EA21B1
:101AB0000020A8F80010A44C2080EB212020A8F8DA
:101AC00000102080EC20A8F800002280ED21C42026
:101AD000A8F800102080E8214020A8F800102080FD
:101AE000E9213820A8F800102080F1210120A8F871
:101AF00000102080F2201021A8F80000218027216A
:101B0000A320A8F80010208040210120A8F8001090
:101B1000208041210020A8F8001020804221A8F850
:101B20000010208043211020A8F8001020804421BC
:101B30000E20A8F80010208045212420A8F80010CD
:101B4000208046210420A8F8001020804721502042
:101B5000A8F80010208048210220A8F8001020805A
:101B600049211320A8F8001020804A211920A8F844
:101B7000001020804B21A8F8001020804C21162056
:101B8000A8F80010208050211B20A8F80010208009
:101B900051213120A8F80010208052212F20A8F8D0
:101BA0000010208053213F20A8F8001020805421ED
:101BB000A8F80010208055213E20A8F800102080B1
:101BC00056202F21A8F80000218057207B21A8F85B
:101BD0000000218058210920A8F8001020805921F8
:101BE0000620A8F8001020805A21A8F800102080B4
:101BF0005B210C20A8F8001020805C211D20A8F893
:101C0000001020805D21CC20A8F8001020801B212E
:101C10001820A8F8001020801A210120A8F8001030
:101C2000208024211520A8F8001020802521502094
:101C3000A8F80010208023218B20A8F80010208015
:101C400018213620A8F80010208019210120A8F8BA
:101C50000010208001460020A8F8001020801F21DD
:101C60008820A8F8001020803220FEF741FD1F21B7
:101C70008020A8F8001020803220FEF739FD1F21B7
:101C80009020A8F8001020803220FEF731FD1F219F
:101C9000D020A8F8001020803220FEF729FD17215F
:101CA0000520A8F80010208036210020A8F8001098
:101CB000208028213820A8F8001020803220FEF74C
:101CC00017FD28213C204DE10D20087042210820FD
:101CD000A8F8001020804621B420A8F80010208029
:101CE00047214320A8F80010208048211320A8F89D
:101CF0000010208049214720A8F8001020804A21A8
:101D00001420A8F8001020804B213620A8F80010DD
:101D100020804C210320A8F8001020804D2146206F
:101D2000A8F8001020804E210520A8F8001020807F
:101D30004F211020A8F80010208050200821A8F87A
:101D400000002180512101E0000002600A20A8F873
:101D50000010208002210020A8F80010208003211C
:101D6000A8F8001020800421A8F800102080052089
:101D7000EF21A8F80000218006210020A8F800101B
:101D800020800721A8F80010208008210120A8F851
:101D90000010208009213F20A8F8001020800A2090
:101DA000FEF7A6FC01200621A8F8000021801621DC
:101DB000C820A8F80010208023219520A8F8001042
:101DC00020802421A8F8001020802521FF20A8F8D9
:101DD0000010208027210220A8F800102080282150
:101DE000A8F8001020802921A8F8001020802A21BE
:101DF000A8F8001020802C21A8F8001020802D21A8
:101E0000A8F8001020803A210120A8F800102080B6
:101E10003B21A8F8001020803C21F020A8F80010F9
:101E200020803D210020A8F8001020801420FEF71B
:101E30005FFC35213820A8F800102080362178205A
:101E4000A8F8001020803E213820A8F8001020803B
:101E500040210F20A8F8001020804121F020A8F890
:101E60000010208038210020A8F8001020801921BF
:101E70004920A8F80010208093210A20A8F800101B
:101E80002080FEF735FC2021A8F8001021801D21BC
:101E90000320A8F8001020801E210020A8F80010C0
:101EA00020801F210920A8F8001020804421532001
:101EB000A8F80010208045211020A8F800102080EC
:101EC0000A20FEF715FC1C210420A8F80010208031
:101ED0001420FEF70DFC43218020A8F8001020807C
:101EE0000520FEF705FC1B210A20A8F80010208021
:101EF0002820FEF7FDFB1B201221A8F800002180FE
:101F00002820FEF7F5FB90217F20A8F80010208004
:101F100026210420A8F8001020802820FEF7E8FBE6
:101F200026212420A8F8001020802C20A8F80010DA
:101F300020802820FEF7DCFB70200821A8F8000094
:101F4000218026213C20A8F8001020805721022063
:101F5000A8F80010208055210020A8F8001020804B
:101F600057210020A8F800102080BDE8F05F322043
:101F7000FEF7BEBBE64A10B5A0F23F10404214780F
:101F8000E44B80B24FF0C042072C08D020241480CC
:101F900019802121118018802220108010BD4E242C
:101FA000148019804F211180188010BD2DE9F04157
:101FB0000646D7480024D74F00784FF0C0450C287C
:101FC0000FD00D280DD000210846FFF7D3FF2220A7
:101FD00028804FF496303E80641C8442FBD3BDE8D9
:101FE000F0810221002029803880032000212880F0
:101FF00039800420288039800521EF20298038800D
:10200000062000212880398007210020298038807F
:10201000082101202980388009213F20298038802B
:10202000D5E710B5FFF7A6FF4FF0C041222008808A
:10203000B7480178B748891F092917D2DFE801F0AE
:10204000050505051616080805000188008810BD5D
:102050000188C1F3C70201880088C908C0F387005E
:10206000C90241EA4010104380B210BD01880088C7
:10207000C0F34511C20AC00200EB41101044F3E75F
:1020800010B51446B0F5A07F09D2F02907D2FFF7AA
:1020900071FF4FF0C041222008809E48048010BD8F
:1020A0002DE9F04705469146DDF820A098460C46FC
:1020B00010464D4501D9A94685B21846444501D977
:1020C000884684B2A9EB0500A8EB040100B20EB269
:1020D00050B1A6B1B04230DDC0EB46010FB2710085
:1020E000404201EB400825E0524621462846FFF7D2
:1020F000C7FF641CA4B2A045F6D2BDE8F0875246E3
:1021000021462846FFF7BCFF6D1CADB2A945F6D2AB
:10211000F3E7524621462846FFF7B2FF6D1CADB2E9
:10212000002F04DD641CA4B208EB070001E007EBFC
:10213000460007B24D45ECD11AE0C6EB40010FB2A4
:102140007100404201EB400910E05246214628460A
:10215000FFF796FF641CA4B2002F04DD6D1CADB226
:1021600009EB070001E007EB460007B24445ECD15C
:10217000524621462846BDE8F04781E72DE9FF5F3A
:10218000894607469B4611466846FEF7A7FA002592
:10219000EA4600241AF8058009EB0506C4F1070198
:1021A00028FA01F0C00707EB0400B1B280B201D0F9
:1021B0005A4600E00E9AFFF763FF641CA4B2082C95
:1021C000ECD36D1CADB2102DE3D3BDE8FF9F2DE91C
:1021D000F8439946089F16460D4604464FF49C78EE
:1021E00016F8012B4B46294620460097FFF7C6FFFD
:1021F000444502D20834A4B207E0E02D4FF00004B9
:1022000002D21035ADB200E0002530780028E7D1C9
:10221000BDE8F8832DE9F0413F4C86B04FF000084F
:10222000206840F008002060206800F00800059059
:10223000206840F010002060206800F01000059039
:1022400035480830016841F001010160006801254E
:1022500000F0010005904CF63370009002200190D0
:1022600003260C200295CDE903602C4F69463846C1
:1022700003F0A4FF4FF6847000906946284803F0ED
:102280009DFF206840F008002060206802AA00F04E
:10229000080005908020CDE9000582E860016946CC
:1022A000384603F08BFF00228021384604F0D1F835
:1022B00006B094E630B597B000241020CDE9024076
:1022C000009401940494059400020694CDE907401B
:1022D00009940A944FF020450B940D940C940E949D
:1022E000694628460F9408F0B9FB0F21CDE9101478
:1022F000CDE9121414941594002210A928461694BE
:1023000008F0ECFB286840F00100286017B030BDF1
:10231000140000200000026030380240000C02402F
:10232000001002402DE9F043ADF50B7D9146884643
:1023300000228A920146964F0122684601F099FADE
:10234000002830D18AAB022289A9684601F02BFB14
:1023500030BB9DF824029DF8251210FB01F04200CD
:102360008AAB3946684601F01EFBC8B9002513E068
:10237000002409EB05060AE005FB0040B1B237F87E
:10238000102008EB040080B2FFF77AFE641C9DF871
:102390002402A042F0D86D1C9DF82502A842E7D87F
:1023A000684601F0B8FC0DF50B7DBDE8F08370B513
:1023B0000E460446002508E0A088324681B22088F7
:1023C000284480B2FFF75CFE6D1CA068A842F3D8D9
:1023D00000250BE0A088A18932460844401E81B246
:1023E0002088284480B2FFF74BFE6D1CA068A842ED
:1023F000F0D8002508E0A0883246284481B2208821
:1024000080B2FFF73DFE6D1CE068A842F3D80025BE
:102410000BE02088218932460844A188401E2944C7
:1024200080B289B2FFF72CFE6D1CE068A842F0D89C
:1024300070BD2DE9F04F85B0DC261024CDE9036492
:1024400028254FF0320ACDE9015A4FF2DE7101A87A
:10245000FFF7ADFF4220CDE90150CDE903644FF213
:10246000DE7101A8FFF7A3FF5220CDE90150CDE9AD
:1024700003644FF2DE7101A8FFF799FF6220CDE9F6
:102480000150CDE903644FF2DE7101A8FFF78FFF21
:102490007220CDE90150CDE903644FF2DE7101A84D
:1024A000FFF785FF8220CDE90150CDE903644FF2AB
:1024B000DE7101A8FFF77BFFCDE903641E27CDE99C
:1024C00001574FF2DE7101A8FFF771FF4FF0C80806
:1024D000CDE902874FF4FC6BCDF80480594601A882
:1024E0000497FFF764FF02984FF00009C01C81B207
:1024F0000198CDF80090C01C80B25B4625A2FFF782
:1025000066FEE620CDE9028701901F2101A804970D
:10251000FFF74DFF0298CDF80090C01C81B20198E2
:102520001F23C01C80B21CA2FFF751FECDE9028719
:102530004FF48270049701904FF47847394601A810
:10254000FFF735FF0298CDF80090C01C81B20198CA
:102550003B46C01C80B211A2FFF739FE9220CDE9A4
:102560000150CDE903644FF2DE7101A8FFF71FFFB0
:10257000D2200190A720CDE9020A4FF2DE71049427
:1025800001A8FFF714FF05B0BDE8F08F7047000009
:10259000580C0020500000005500000044000000CE
:1025A00030B5FA4887B00025016841F002010160AA
:1025B000016801F002010591016841F00401016028
:1025C000006800F004000590F0481030016841F404
:1025D000804101600068012400F4804005904FF4C0
:1025E0006040009002200190032003900520049099
:1025F00069460294E64803F0E1FD1020CDE90004AD
:10260000E44C6946204603F0D9FD2021CDE90015B0
:102610006946204603F0D2FD01221021204603F036
:1026200018FF00F0ECFA07B030BD3EB500208DF881
:1026300004008DF808006425012302AA01A9D648E8
:10264000009507F0AFF99DF808000402012000F0A2
:1026500001FB012302AA01A9CF48009507F0A2F9C6
:102660009DF808000443C4F3CB003EBD70B5C94CCF
:1026700000221021204603F0ECFE012000F0EAFACF
:10268000902000F0F4FA012000F0E4FAFFF7CDFF0B
:10269000054601221021204603F0DBFE284670BDCE
:1026A00070B5BC4C00221021204603F0D2FE012060
:1026B00000F0D0FAD02000F0DAFA012000F0CAFAD7
:1026C000FFF7B3FF054601221021204603F0C1FEAB
:1026D000284670BD70B50D460646FFF7C7FF044695
:1026E000012000F0B7FAFFF7DBFF3460286070BD0F
:1026F00070B50C4606461F22FFF7C2FC751CA8B237
:102700001F222146FFF7BCFC641CA1B21F223046E9
:10271000FFF7B6FCA1B2A8B2BDE870401F22FFF7D8
:10272000AFBC2DE9FC5F8146801E4FF6FF7482B27C
:10273000A9F10F078846B8B20B460094FFF7B0FC2A
:1027400009F10F0609F102004346B2B280B2194600
:102750000094FFF7A5FCA8F1020083B2A8F10F05D1
:102760004A46A9B210460094FFF79AFC009408F17B
:10277000020008F10F0481B24A46A3B21046FFF7E7
:102780008FFC4BF6F04AA9F1070BA3B21FFA8BF2AC
:10279000A1B2B8B2CDF800A0FFF782FC08F10700A3
:1027A000CDE900A081B2A3B2BAB2B8B2FFF778FC0B
:1027B000ABB21FFA8BF2A9B2B8B2CDF800A0FFF706
:1027C0006FFCA8F10708ABB2BAB21FFA88F1B8B231
:1027D000CDF800A0FFF764FC1637A3B2B2B2A1B2E5
:1027E000B8B2CDF800A0FFF75BFC0198A3B281B2AC
:1027F000B2B2CDF800A0B0B2FFF752FCABB2B2B2A9
:10280000A9B2B8B2CDF800A0FFF74AFC1FFA88F3CE
:10281000B2B2A9B2B0B2CDF800A0FFF741FCBDE85A
:10282000FC9FF0B595B000244821684608F078FD7B
:10283000584E6D4613A912A8FFF74CFF129845F8A1
:10284000240005EB840113984862641CE4B2202143
:10285000304603F0F9FD08B9092CEBD3092C71D1EE
:10286000DDE900010844029903270844DDE9031269
:102870001144059A90FBF7F0114491FBF7F2DDE962
:1028800006131944089B841A194491FBF7F1551A51
:102890000E1A002C00DC6442002D00DC6D42002E7C
:1028A00000DC7642022C03DD022D01DD022E49DC24
:1028B0003A4BAC4205DAA64201DA084404E010447F
:1028C00002E0AE42F9DB501800EBD07040081880EF
:1028D000DDE9090108440B990844DDE90C121144B3
:1028E0000E9A90FBF7F0114491FBF7F2DDE90F141B
:1028F0002144119C214491FBF7F1841A551A0E1AB8
:10290000002C00DC6442002D00DC6D42002E00DC57
:102910007642022C03DD022D01DD022E12DCAC42D8
:1029200005DAA64201DA084404E0104402E0AE42AF
:10293000F9DB501800EBD07040085880174815B0EC
:10294000F0BDFFE70020FAE72DE9F0470C46054609
:102950000988208916460A1AE388618901275B1ACB
:102960005A43A388C01A6388591A00FB012009F052
:102970002EF841EC100B9FED0A1B86ED0C0B53EC6F
:10298000112B08F0BBFF0FD100278FE03038024039
:1029900000040240000802409813002018000020A4
:1029A000000000000000000029882889E3880A1A36
:1029B00061895B1A5A43AB88C01A6388591A00FBB5
:1029C000012009F004F8C6E9000121882089AB88BC
:1029D0000A1A29895B1A5A432B88C91AA388181A1C
:1029E00001FB002008F0F3FFC6E90201A988238952
:1029F000894603FB01F0A288298902FB110C60883B
:102A00000CFB00FC208800FB01F8298803FB1183E4
:102A1000B4F806804A4303FB08C300FB1920618910
:102A200000FB013008F0D3FFC6E90401698868891A
:102A3000E3880A1A61895B1A5A43EB88C01A6388D3
:102A4000591A00FB012008F0C2FFC6E906012188DF
:102A50002089EB880A1A69895B1A5A436B88C91A5C
:102A6000A388181A01FB002008F0B1FFC6E908018D
:102A70002289B5F80680A1886B8902FB08F001FB6A
:102A8000130C60886D880CFB00FC2088694343436D
:102A900002FB1532E38800FB181002FB03C26189B8
:102AA00000FB012008F093FFC6E90A013846BDE8A3
:102AB000F0872DE9F04114462DED028B0D4692ED85
:102AC0000C0B074601261FED4A1B51EC100B53EC73
:102AD000112B08F013FF4ED0688808F08FFF94ED9B
:102AE000021B53EC112B08F09DFF41EC180B2888BA
:102AF00008F084FF94ED001B53EC112B08F092FFBB
:102B000053EC182B08F0EEFC94ED041B53EC112B46
:102B100008F0E8FC94ED0C1B53EC112B08F096FD2B
:102B200008F028FF3880688808F068FF94ED081BDB
:102B300053EC112B08F076FF41EC180B288808F0B5
:102B40005DFF94ED061B53EC112B08F06BFF53EC6B
:102B5000182B08F0C7FC94ED0A1B53EC112B08F05E
:102B6000C1FC94ED0C1B53EC112B08F06FFD08F029
:102B700001FF788000E00026BDEC028B3046BDE806
:102B8000F081F8B5002427464FF496764FF6FF758E
:102B90000020FFF70BFA2B463BA20A212C200097BE
:102BA000FFF715FB00210020401C80B2A842FBD398
:102BB000491C89B2B142F6D33B4800EB840130F89E
:102BC00024004988FFF7ADFDFFF72BFE0028FBD05E
:102BD0003649028821F8242001EB8401641C4088D6
:102BE000E4B24880032CD3D3304A3049903A2E487F
:102BF000FFF7AAFEBDE8F8400020FFF7D7B938B5C7
:102C00002B4900200A6842F480420A600968274C78
:102C100001F480410091583C2649216084F851001C
:102C20004FF48271C4E90110E0604FF4007120613B
:102C3000C4E905012021C4E907106062A0620720F1
:102C4000E062204606F03BFD2068016841F040014B
:102C5000016038BD01B5002105E00C20401EC0B266
:102C6000FCD2491C89B200988142F6D308BD0EB54A
:102C700001238DF80400642000900C4802AA01A9E9
:102C8000583806F08FFE0EBD546F7563682063726E
:102C90006F73736861697220746F2063616C69621D
:102CA00072617465000000001C000020F013002019
:102CB000403802400038004010B510B1012803D15F
:102CC00010BD01F0D0FC08B1012010BD394806F05C
:102CD000C8FA3849002088614FF40061354806F091
:102CE00091FA002010BD002804D0012803D002284A
:102CF00001D001207047002070477CB51C001646AB
:102D00000D4601D0B0B901E004207CBD084601F0B9
:102D100071FC294872020023006DCDE900042946A8
:102D2000244805F099FF6FF07F41224806F08BF8A8
:102D30000028EAD001207CBD7CB51C0016460D465B
:102D400001D0D0B901E004207CBD01F01AFC1A4882
:102D500072020023006DCDE900042946154805F0F4
:102D60007FFE4FF6FF71134806F0CCF80446114879
:102D700006F09CF80028FAD10CB101207CBD00209F
:102D80007CBD10B5144688B90B4B04291A6D0DD2C1
:102D9000DFE801F00A020C09D3E91201002308F070
:102DA000D1F8206000E02280002010BD042010BD7A
:102DB0000020704700140020201500202DE9F0416C
:102DC000C56A0F460446BD422BD0217904F1300874
:102DD000D9B1607801232A464146FFF7ADFFE0B93B
:102DE00000202071D4E907100844A8420DD9E678E4
:102DF00009E0E0690123054460782A464146FFF76F
:102E00009BFF761EF6B2012EF3D857B160780123EE
:102E10003A464146FFF771FF10B10120BDE8F0814D
:102E2000E7620020FAE72DE9F04104460021FFF7B0
:102E3000C5FF050050D12078032846D16079E8B35A
:102E4000002604F130004FF4007231460746E66276
:102E500001F006FB552084F82E02AA2084F82F02E8
:102E6000522084F8300084F83100612284F8322046
:102E7000412084F83300722184F8141284F815126A
:102E800084F8160284F81722206984F81802010ACF
:102E900084F81912010C84F81A12000E84F81B022F
:102EA000E06884F81C02010A84F81D12010C84F801
:102EB0001E12000E84F81F02607800E005E0012376
:102EC00039466269FFF738FF667100226078114663
:102ED000FFF757FF00B1012528469FE78269891E49
:102EE000921E8A4201D800207047826A807801FBD6
:102EF000002070472DE9F0410D460446022902D317
:102F0000A069A84201D8012088E72078012804D0D0
:102F1000022826D0032837D12FE0206A05EB55067A
:102F200000EB56212046FFF749FF68BBC6F30800B7
:102F30002044761C90F83070206A00EB5621204621
:102F4000FFF73CFF00BBC6F308002044E90790F8F8
:102F5000300047EA002001D000095FE7C0F30B0012
:102F60005CE7206A00EB15212046FFF727FF58B9E0
:102F7000E8B204EB4000008E50E7206A00EBD51168
:102F80002046FFF71BFF10B14FF0FF3046E740F23D
:102F9000FF1000EA8500204490F83010D0F831008E
:102FA00041EA002020F0704038E72DE9F04716464E
:102FB0000D460446022902D3A069A84202D8022085
:102FC000BDE8F087207806F0FF084FF001090128DE
:102FD00007D0022837D0032846D0022084F8049076
:102FE000EEE7206A05EB550700EB57212046FFF777
:102FF000E5FE0028F2D1C7F3080020443030E9078D
:1030000003D0017868F31F1100E03146017084F8A5
:103010000490206A7F1C00EB57212046FFF7CEFE6C
:103020000028DBD1C7F3080121443031EA0702D080
:10303000C6F3071205E00A78C6F3032302F0F00294
:103040001A430A70CAE7206A00EB15212046FFF7F1
:10305000B5FE0028C2D1E9B204EB4101320A81F881
:10306000308081F83120B9E7206A00EBD511204685
:10307000FFF7A4FE0028B1D140F2FF1101EA85015B
:1030800021444FF07043D1F8312003EA0222324349
:1030900001F8302F130A4B70130C8B70120ECA708C
:1030A0009CE72DE9F0410F460546022918D3A8698F
:1030B000B84215D900264FF001081DE039462846D0
:1030C000FFF718FF04001AD0012C09D0601C09D0AA
:1030D000002239462846FFF768FF06000FD103E0BB
:1030E00002260CE001260AE02869411C03D0401C9E
:1030F000286185F805802746A869B842DED83046A1
:103100008CE62DE9F0410F00064605D0FFF7F2FEF0
:10311000022808D2012081E6F56815B1B069A842FD
:1031200005D8012503E0B1698142F4D83D462C461B
:10313000B069641CA04202D80224022D0AD32146A1
:103140003046FFF7D7FE38B1411CE4D00128E2D069
:10315000AC42EDD1002061E66FF07042214630466E
:10316000FFF723FF30B957B1224639463046FFF703
:103170001CFF20B101280BD0012420464EE6F4604C
:103180003069411CF9D0401E306101207071F4E7B4
:103190004FF0FF34F1E770B50D46C18081680446F9
:1031A00001291ED0206882698A421AD921B9027881
:1031B000032A04D1416A11B18078060117E0E16069
:1031C0000189A9420DD9406A17E02068FFF792FEF5
:1031D0000146401C07D0022903D320688069884239
:1031E00003D8022070BD012070BDA81B85B2B54276
:1031F000EBD2E1602068FFF771FE00EB1510206153
:1032000005F00F013022206802EB41110844606193
:10321000002070BD2DE9F0410446C0880E46401CD8
:1032200007043F0C2DD0206958B339075CD1401CEE
:103230002061E168206829B18278521E12EA171FC6
:1032400004D051E00089B8421BD94DE0FFF752FE8F
:103250000546012819D9681C31D020688169A94226
:103260003CD876B1E168FFF74CFF05000BD0012D8B
:103270000BD0681C23D000212068FFF79FFDF0B918
:1032800005E00420CAE50720C8E50220C6E520685D
:103290004FF400720021303001F0E2F82946206836
:1032A000FFF71CFE216800264FF00108C8620EE0FF
:1032B00080F8048000212068FFF780FD08B101201C
:1032C000ACE52068C16A491C761CF6B2C162206870
:1032D0008178B142ECD8C16A891BC162E560294698
:1032E0002068FFF7FBFD2061E78007F00F01302227
:1032F000206802EB41110844606100208EE510B5A2
:103300000446042015E02068FFF758FDB0B9626953
:10331000117861B1E52904D02E2902D0D17A0907AC
:103320000ED500212046FFF775FF10B106E00420FE
:1033300004E021690029E6D1002801D000212161A3
:1033400010BD70B505460021FFF725FF0EE0296985
:103350002868FFF733FD04001FD168690078E5286D
:1033600007D030B101212846FFF754FF0400EED00A
:1033700013E029692868FFF721FD04000DD16E696B
:1033800020220021304601F06BF80B223046A9695B
:1033900001F05EF8296801200871204670BD10B563
:1033A0000446C188FFF7F7FE00280BD12169206889
:1033B000FFF704FD002805D16269E521117022683C
:1033C0000121117110BD2DE9F04789460C6800E01C
:1033D000641C21782F29FBD05C29F9D085690B2248
:1033E0002021284601F03CF8002002461346082719
:1033F000E15C5B1C20294CD92F294AD05C2948D09C
:103400002E2901D0B84208D3082F4FD12E294DD1F3
:1034100008200B2791060A0EEAE7802901D342F023
:103420000302A1F181061E2E02D95F3E1C2E13D885
:10343000E65C5B1CA6F1400CBCF13F0F04D3A6F187
:10344000800CBCF17D0F31D2A7F1010C60452DD26B
:103450002954401C2E541AE0F7A600E0761C96F87A
:1034600000C0BCF1000F02D08C45F7D11EE0A1F1E5
:103470004106192E02D842F0020207E0A1F16106CE
:10348000192E03D8203942F00102C9B22954401C38
:10349000AEE71C44C9F80040202901D8042100E00F
:1034A000002118B12878E52802D003E0062087E53E
:1034B00005202870082F01D19006020E02F00300AB
:1034C000012801D141F01001C2F38100012801D18E
:1034D00041F00801E972002072E510B5036901F1BD
:1034E00009023BB340690024035D202B07D0052B64
:1034F00000D1E523641C02F8013B082CF4D3037AC5
:10350000202B0BD02E2302F8013B0823C45C202C77
:1035100004D05B1C02F8014B0B2BF7D3C37A0B7260
:10352000037FD0F81D4043EA04230B60038B8B809C
:10353000C08AC8800020107010BD73B50446019980
:1035400008782F2801D05C2801D1491C0191002561
:10355000A56001980078202805D200212046FFF7B9
:103560001AFE65617CBD01A92046FFF72CFF0028EB
:10357000F8D100212046FFF70EFEF8B92169206836
:10358000FFF71CFCD0B961690A7872B1CA7A1207D8
:103590000ED40B23A26900255B1E08D311F8015B32
:1035A00012F8016BAD1BF7D002E0042006E02DB14C
:1035B00000212046FFF72EFE0028DFD0A169C97A3E
:1035C00028B10428CED14907CCD405207CBD4907B9
:1035D000FCD46069C17AC906F7D5818A408B61F352
:1035E0001F40A060BFE710B504460A46407801239B
:1035F00004F13001FFF781FB08B1032010BDB4F8DE
:103600002E12A1F52A40553801D0022010BD94F8A1
:103610006600B4F8671040EA01218B48B0EB012F37
:1036200008D094F88210B4F8832041EA0221B0EB6C
:10363000012F01D1002010BD012010BD2DE9F04760
:10364000036815461C78303C092C07D85A783A2A6A
:1036500004D19B1C03600CB10B20B1E47B480468CF
:103660000C609CB1207820B16078FFF73CFBC1076B
:103670000ED04FF0000984F80090484684F801907D
:10368000FFF71AFBC10708D0032099E40C2097E448
:103690000DB1400704D4002092E41DB1400701D5CC
:1036A0000A208DE4002631462046FFF79CFF0128C2
:1036B0000CD104F5F7700179F1B3017AD0F8090063
:1036C00041EA002631462046FFF78DFF032801D04E
:1036D00090BB01E0012073E4B4F83B00B0F5007F3B
:1036E00057D1B4F8460028B994F85400D4F85510CE
:1036F00040EA0120E06194F840108446E17001291D
:1037000001D0022945D194F83D504843A5709DB1A0
:103710006A1E15423DD1B4F841202281110738D1EB
:10372000B4F8431029B994F85010D4F8513041EA54
:103730000321E38F03B100E02BE01F1807EB121702
:10374000B94226D3C91BB1FBF5F111B3012540F6EF
:10375000F678414500D302254FF6F678414500D36F
:1037600003253744891C3344A7622362A161032DDA
:1037700011D072B118446062022D17D001F001001F
:1037800001EB410100EB510000F2FF10BCEB502FA8
:103790000ED20D2014E4002AFBD194F85C00D4F87A
:1037A0005D2040EA022060628800EDE74800EBE718
:1037B0004FF0FF30C4E903904F46032D32D16771BB
:1037C000B4F8600016FA80F262616078012304F1B7
:1037D0003001FFF792FA28BBB4F82E02A0F52A4177
:1037E00055391FD194F83000D4F8311040EA012047
:1037F0001749884216D194F81402D4F8151240EAF9
:103800000120144988420DD194F81C02D4F81D12ED
:1038100040EA0120E06094F81802D4F8191240EA56
:103820000120206109492570091F0888401C088073
:10383000E080E76227712EE7222A2B2C3A3B3C3DA1
:103840003E3F5B5D7C7F000000464154300000201D
:10385000525261417272416108B10B207047FE4BB8
:103860000022186800B1027001B10A7000201960CE
:1038700070472DE9F7478BB04FF00009074602F07B
:103880001F06C0F8009026F0010269460CA8FFF759
:10389000D5FE050007A8069004D168460C99FFF7ED
:1038A0004CFE0546059C0DB904B9062516F01C0F03
:1038B0004ED055B1042D03D16846FFF742FD0546B1
:1038C000059C46F0080645B16AE0E07A10F0110F59
:1038D00048D1700701D5082562E0300748D5FFF7C9
:1038E00067FAA073010AE173010C2174000E607481
:1038F00084F80B9084F81C9084F81D9084F81E9036
:1039000084F81F90A28A618B84F81A9084F81B9027
:1039100062F31F4184F814905FEA010884F815905F
:1039200000994FF00100087141461FD00098D0F86F
:103930002CA0FFF7B6FB050032D10099A8F10100D9
:10394000C86051460098FFF739FA051E0CD027E0F1
:1039500035BBE07AC10601D5042521E0B10703D5C6
:10396000C00701D007251BE0300701D546F020062F
:103970000098C06AC7E90704BE71A18A608B61F331
:103980001F403861207FD4F81D1040EA0120C7E9AC
:103990000290C7F81890009838600098C088B880E6
:1039A00028460EB083E52DE9F05F894600211960B5
:1039B000044681889A461646006800F058FD0028A3
:1039C00003D1A079010602D50220BDE8F09FC0070F
:1039D00008D0D4E90210401A04F1240B864200D921
:1039E00006467EE00720F0E7A068C10561D12268A5
:1039F0009178491E01EA502111F0FF0709D1F8B171
:103A000010466169FFF776FA02281BD3411C48D0A3
:103A1000606161692068FFF761FA98B100EB0708FF
:103A2000750A25D020687A1981788A4200D9CD1B81
:103A3000EBB2407842464946FFF75FF988BB06E0A3
:103A40002069E1E7A07940F08000A071BCE7A0798F
:103A500040060BD5A169A1EB0800A84206D209EBEC
:103A600040204FF40072594600F0F2FC6D022EE047
:103A7000A26942451BD0A07940060AD520680123DF
:103A800059464078FFF758F958B9A07920F040001E
:103A9000A07120680123424640785946FFF72DF96E
:103AA00028B1A07940F08000A07101208DE7C4F812
:103AB00018802089C0F30800C0F50075B54200D910
:103AC000354601192A464846243100F0C1FCA06859
:103AD000A9442844A060DAF800004119761BCAF80E
:103AE0000010002E80D100206FE72DE9F05F89469D
:103AF00000211960044681889A461646006800F045
:103B0000B6FC002803D1A079010601D502205CE7AC
:103B1000800701D4072058E7E06804F1240B8219DC
:103B2000824274D393E0A068C10574D12268917871
:103B3000491E01EA502111F0FF050BD1B0B110462A
:103B40006169FFF7DEFA002861D0012832D0411CFC
:103B500057D06061A079400615D5206801235946E9
:103B60004078A269FFF7E8F8D8BB08E02069002890
:103B7000EBD100211046FFF7C4FA2061E3E7A079FA
:103B800020F04000A07161692068FFF7A7F988B1B3
:103B900000EB0508770A25D02068EA1981788A4267
:103BA00000D94F1BFBB2407842464946FFF7C4F8A4
:103BB000B8B904E0A07940F08000A071A6E7A1693F
:103BC000A1EB0800B8420AD209EB40214FF4007281
:103BD000584600F03DFCA07920F04000A0717D0225
:103BE0002BE00EE0A169414513D0D4E902018842DF
:103BF0000FD220680123424640785946FFF77DF8EE
:103C000038B1A07940F08000A0710120DDE621E00C
:103C100001E0C4F818802089C0F30800C0F50075E1
:103C2000B54200D9354620442A464946243000F0A2
:103C30000FFCA07940F04000A071A068A94428447E
:103C4000A060DAF800004119761BCAF80010002EB7
:103C50007FF469AF02E0000030000020D4E90201E7
:103C6000884200D9E060A07940F02000A0710020D7
:103C7000ABE670B504468188006800F0F8FB0028C8
:103C80000ED1A1798A060BD548060ED520680123EE
:103C900004F124014078A269FFF74EF808B1012031
:103CA00070BDA07920F04000A071E1692068FFF7A5
:103CB00085F80028F4D1256AE87A40F02000E872FF
:103CC000207B2877A089000A6877E068000CA87735
:103CD000E068000EE877207CA876208A000AE87663
:103CE0002069000C28752069000E6875FFF760F8E0
:103CF000A875010AE975010C2976000E6876A0798D
:103D000020F02000A0712168012008712068BDE822
:103D10007040FFF788B810B50446FFF7AAFF0028E7
:103D200001D10021216010BD2DE9F0410D4604466E
:103D30008188006800F09BFB5FEA000803D1A1794D
:103D4000080602D50220BDE8F081E068A84202D250
:103D5000890700D405460027A068A760FDB1226846
:103D600091784E0268B1691E401EB1FBF6F1B0FBBE
:103D7000F6F3994205D3711E8843A0602D1A61693C
:103D80000CE0216949B900211046FFF7BAF9014654
:103D900001283FD0481C4ED021616161D1B926E095
:103DA000A0798007206805D5FFF7ABF9010004D1A1
:103DB000354611E0FFF79EF80146481C3BD001292B
:103DC00028D920688069884224D96161A068AD1B28
:103DD0003044A060B542E3D8A0682844A060E8055C
:103DE00005D02068FFF77AF8A0B100EB55272089AD
:103DF000C00527D0A269BA4224D0A07904F12405D5
:103E0000400610D52068012329464078FEF794FF2C
:103E100088B904E0A07940F08000A07192E7A07911
:103E200020F04000A071206801233A4640782946DE
:103E3000FEF763FF28B1A07940F08000A071012057
:103E400081E7A761D4E90201884204D9E060A07942
:103E500040F02000A071404675E713B584B00446D9
:103E60000146002205A8FFF7E9FB00281AD1C4F893
:103E700018D020460599FFF760FB80B9606938B11A
:103E8000C17AC9060DD5818A408B61F31F40A060BD
:103E900020680021C088A0802046FFF77CF9042814
:103EA00000D1052006B010BDFEB50D460446818840
:103EB000006800F0DCFA002816D1B5B1C4F818D0BB
:103EC0002046FFF71CFA0026042813D000280BD147
:103ED00029462046FFF701FB00212046FFF79AF90B
:103EE000042801D100202661FEBD00212046FFF7F5
:103EF00052F9FEBD2661EBE733B58BB00D460022CB
:103F000069460BA8FFF79AFB04000FD107A806909B
:103F100068460B99FFF711FB040007D1059820B103
:103F200029466846FFF7D9FA00E0062420460DB07E
:103F300030BD2DE9F74F15468A46002229466846CE
:103F4000FFF77CFB5FEA000854D1286887690169A4
:103F5000BA1E914202D8CAF800104BE090F80090C7
:103F60000024B9F1010F01D0066A17E0022631469C
:103F70002868FEF7BFFF411C03D0012803D028B1F9
:103F800005E0012000E00220804629E0641C28684A
:103F9000761C80698642EAD322E059B93146761C04
:103FA0002868FEF70BFF5FEA000819D128684FF474
:103FB00000713030B9F1020F07D00278D0F801302B
:103FC00042EA0322120106D006E0028802B9641C0C
:103FD000801C891E02E0641C001D091F7F1EDCD1AD
:103FE0002868B9F1030F046102D1296801204871E2
:103FF000CAF800404046BDE8FE8F70B5044681888F
:10400000006800F034FA05003DD1A179080601D519
:10401000022538E0880701D4072534E0D4E90202FC
:10402000824230D941F02001E060A17150B1616954
:104030002068FEF75FFF0646401C0BD0012E0BD018
:1040400065B11CE021692068FFF72BF805460020C8
:10405000206113E0012512E0022510E0206881694B
:10406000B14210D96FF070426169FEF79EFF050002
:1040700005D131462068FFF714F805461DB1A07937
:1040800040F08000A071284670BD11B591B00122AA
:10409000694611A8FFF7D2FA002819D10EA8069098
:1040A00068461199FFF749FA002811D1059A8AB19B
:1040B000D17AC90700D00720918A548B002861F378
:1040C0001F4405D1D07AC0061AD5022C04D2022092
:1040D00012B010BD0620EFE71C22694607A800F0C9
:1040E000B7F9022107A80994FFF755F80028EFD186
:1040F00007A8FFF704F998B1042801D00028E7D1F8
:104100006846FFF74CF90028E2D12CB1214600980F
:10411000FEF7C7FF0028DBD10098FEF784FED7E743
:104120000720D5E72DE9F14F90B0FEF741FE074695
:104130000122694610A8FFF781FA040009D10DA8F1
:10414000069068461099FFF7F8F9040002D0042C95
:1041500002D0ACE00824AAE000210098FEF7D1FFCD
:1041600006004FF0000402D0012E02D002E0072426
:1041700000E00224701C01D014B179E0012477E042
:1041800000210098FEF71AFE040071D13146009814
:10419000FEF7A4FE009D804630354FF400720021EA
:1041A000284600F05DF90B222021284600F058F93E
:1041B0002E242C701020E872F8B20C90A875C7F36A
:1041C00007200B90E875C7F307400A902876380E51
:1041D00009906876F0B20890A876C6F30720079099
:1041E000E876C6F3074B85F814B04FEA166A85F8EF
:1041F00015A02022294605F1200000F029F985F8B4
:104200002140009902980978032904D10099496A4C
:10421000814200D1002085F83A00010A85F83B1060
:10422000010C85F83410000E85F8350000984FF029
:104230000109877815E00099C1F82C80009908F1F0
:10424000010881F8049000210098FEF7B7FD0400F2
:104250000ED14FF400720021284600F001F97F1EB4
:10426000FFB2002FE7D16846FFF76BF8040004D0D7
:1042700031460098FEF715FF19E005981021C1722C
:104280000C9981750B99C1750A9901760999417646
:10429000089981760799C17680F814B080F815A046
:1042A000009981F804900098FEF7BDFD044611B016
:1042B0002046BDE8F08F37B58AB015460C4601227E
:1042C00069460AA8FFF7BAF9002816D107A8069090
:1042D00068460A99FFF731F900280ED1059868B1B0
:1042E00005F02702C17A144091430C43C47200992F
:1042F000012008710098FEF796FD18E6062016E6E4
:1043000013B58AB00C46012269460AA8FFF796F950
:10431000002819D107A8069068460A99FFF70DF9F9
:10432000002811D1059888B1A1798175E188090A21
:10433000C17521790176A188090A41760099012089
:1043400008710098FEF76FFD0CB010BD0620FBE76A
:1043500033B599B00C46012208A919A8FFF76EF9E8
:10436000002851D10898019015A80E9008A8199915
:10437000FFF7E3F8002847D10D98E8B300F10B01EF
:1043800015220FA800F064F81C2208A901A800F06B
:104390005FF8214601A8FFF7D0F870B3042833D1A5
:1043A00001A8FEF7CEFF00282ED1069C13220DF1A6
:1043B0003E0104F10D0000F04BF89DF83C00012592
:1043C00040F02000E0720898057103990A9888422D
:1043D00035D0E07AC00632D5A08A618B60F31F41E8
:1043E0000198FEF77BFD010012D00198FEF7E6FC74
:1043F00001995031002801E005E007E004D1487838
:104400002E2807D01BE004201BB030BD0820FBE79E
:104410000220F9E701980078032806D1019A039851
:10442000526A904201D1002000E003988876020A87
:10443000CA76020C0A75000E48750198057108A825
:10444000FEF7ADFF0028DFD10898FEF7ECFCDBE7B4
:1044500003E011F8013B00F8013B521EF9D270470E
:10446000C9B201E000F8011B521EFBD2704710B523
:1044700020B1027812B1C2888A4201D0092010BD51
:104480004078FEF730FCC007F9D0032010BD0000D3
:10449000894804F0E9BD8948006880020BD5874847
:1044A0009C300068400602D58348C03001E0824855
:1044B000603001F027BD704710B5052001F000FA0B
:1044C00002220121312001F008FA312001F023FA03
:1044D00002221146452001F000FABDE810404520B7
:1044E00001F019BA7648016841F400610160016881
:1044F00021F400610160704770B5714C00250C34E7
:1045000086B0206840F004002060206800F00400BD
:104510000590206840F00800206020680C2100F021
:10452000080005904FF47060009002200190012077
:10453000CDE90301634E02906946304601F03EFE2C
:10454000042000906946604801F038FEA0140090F5
:1045500069460295304601F031FE59482030016825
:1045600041F400610160006800F40060059020687B
:1045700040F480002060206800F48000059006B0C0
:1045800070BD70B54D484C4C4C499C30C03408311E
:104590004FF4803220600A6092000A6052000A6084
:1045A00052000A6055000D60016821F001010160B0
:1045B000204601F021FB4048A063A8016060402034
:1045C000A060042060620020E060E81220618000AA
:1045D00060618000A0612020E0614FF440302062E3
:1045E0000320A062A800C4E90B052046BDE8704086
:1045F00001F09DBA70B531482F4C30499C30603481
:1046000008314FF4803220600A6092000A60520044
:104610000A6052000A6055000D60016821F0010136
:104620000160204601F0E8FA2348A063A801606019
:104630000020A0600421E060080220618000606129
:104640008000A0612020E0614FF44030C4E90801FF
:104650000320A0624805C4E90B052046BDE8704070
:1046600001F065BA3EE710B5FFF726FFFFF744FFFC
:10467000FFF738FF104815490160154909680162C4
:1046800000F1600181656031C16500214160816098
:10469000C1600161416176218161BDE8104000F592
:1046A000907104F00FB8002102E04008491CC9B223
:1046B0000128FAD108467047001400200464024023
:1046C0002438024000080240000C0240002C014047
:1046D0003400002010B5FFF7C6FF0A20FCF708F8E9
:1046E000FE490020FFF7B8F8BDE81040FC49FD483E
:1046F000FFF7B3BBFA4930B4091F086803E00A1892
:1047000012795C2A07D0401E0028F8DC30BCF5483E
:10471000091DFFF7A2BB0A180023D4783A2C02D057
:1047200013710860F2E7401C0A18F9E7EC4930B44D
:10473000091FCC1C0B6800221D5D0C1D5C2D0BD0CD
:104740005C251D550B685B1C0B6005E00D682B5547
:104750000B685B1C521C0B60835C002BF6D104C9F8
:104760000020105530BCDF48FFF777BB2DE9F04142
:10477000DB4F06463F1FD94800242546391D6438C3
:104780003A6806F09BFD3868F91C425CD3496439ED
:104790005C2A02D05C220A540125084402E02A194E
:1047A000641C8154315D0029F9D12A198154CB4808
:1047B0006438BDE8F08110B5002302E00D2B0AD863
:1047C0005B1CC25C2E2AF9D100225B1C18448C5C55
:1047D000835CA34201D0002010BD521CD2B2032A38
:1047E000F5D3012010BD70B5A0F12802962A20D87B
:1047F000A1F11E02102A01D8002070BDB94C002280
:10480000322342251C3403EB02168E420ED805EBF0
:1048100002168E420AD302EB420604EBC606367A33
:1048200026B102EB420004EBC00070BD521C072A07
:10483000E9D3D238282804D8A739102901D8012073
:1048400070BD4FF0FF3070BD2DE9F04F87B00020F4
:10485000FDF7ACFBA348C068002867D0DFF8808272
:104860004FF2DE70A8F104080090002308F1040262
:104870001E212820FDF7ABFC00274FF6E0739AA21B
:10488000A721DC200097FDF7A2FC4FF478494B46A6
:10489000974AB42128200097FDF799FC914D0024F8
:1048A0001C3532264FF6FF7B0DF10D0A35E09DF8E1
:1048B0000D0060B19DF80C00102810D020282CD1DC
:1048C00018E004EB440005EBC000641C0772072CE1
:1048D000F7D308F104018348FFF7BFFA26E004EBA1
:1048E000440005EBC000182201A906F0E7FCCDF852
:1048F000009009E004EB440005EBC000182201A978
:1049000006F0DCFC1F20009006EB041081B25B4631
:1049100052463220FDF75BFC05E001A97148FFF724
:10492000C3FA0028C3D0641C072CF6D3FDF781FD21
:1049300007B0BDE8F08F92B000200E900F9010905D
:1049400011900EA901A8FFF788FA4FF478454FF6A9
:10495000FF770DF12909C0BB002430E09DF8290044
:1049600098B39DF82800102812D1641C04EB840031
:1049700007EA80063B465FA2314632200095FDF7EC
:1049800026FC31463B464A4664200095FDF71FFC55
:104990009DF82800202812D1641C04EB840007EA4B
:1049A00080063B4654A2314632200095FDF70FFCAD
:1049B00031463B464A4664200095FDF708FC08A9AD
:1049C00001A8FFF771FA0028C8D04DA101A8FFF790
:1049D00044FA4FF01F08E8BB641C04EB840007EAAC
:1049E00080013B4648A23220CDF800802EE09DF8A1
:1049F000290078B39DF82800102812D1641C04EB1C
:104A0000840007EA80063B463AA2314632200095F0
:104A1000FDF7DDFB31463B464A4664200095FDF735
:104A2000D6FB9DF82800202812D1641C04EB8400DA
:104A300007EA80063B4639A2314632200095FDF751
:104A4000C6FB31463B464A4664200095FDF7BFFB56
:104A500008A900E004E001A8FFF726FA0028C6D064
:104A600030A101A8FFF7F9F9B0BB641C04EB840086
:104A700007EA80013B462FA23220CDF8008067E094
:104A80009DF8290040B39DF82800102812D1641C1D
:104A900004EB840007EA80063B4616A2314632202A
:104AA0000095FDF794FB31463B464A46642000954D
:104AB000FDF78DFB9DF8280020284BD1641C04EBEA
:104AC000840007EA80063B460BA23146322000955F
:104AD000FDF77DFB314637E042E00000DC150020A9
:104AE000A8000020301C00204E4558540000000053
:104AF0003C0100204469720046494C45000000001A
:104B000064697231000000004F70656E205B2030D8
:104B10003A5C64697231205D0000000046696C6592
:104B200000000000646972315C73756264697231FF
:104B3000000000004F70656E205B20303A5C73759A
:104B40006264697231205D003B464A4664200095EC
:104B5000FDF73DFB08A901A8FFF7A6F900288FD0B3
:104B600044A0FFF792FA0A2242A14548FEF781FECF
:104B700028B9444B6422191D4148FEF7B6FF40484E
:104B8000FFF7C9F801223BA13D48FEF772FE38B994
:104B90003C4B4FF400721B1F3B493948FEF703FFA3
:104BA0003748FFF7B8F8FEE72DE9F84301F10A04AA
:104BB00000F10A090F4605464FF47846A0F10A08AD
:104BC000A3B21FFA89F2A1B21FFA88F00096FDF78E
:104BD00067FA0A3FBBB2A1B21FFA88F02A460096D4
:104BE000FDF75EFABBB2A1B21FFA89F02A46009621
:104BF000FDF756FABDE8F8832DE9F843A1F10A0460
:104C000000F10A090F4605464FF47846A0F10A085C
:104C1000A3B21FFA89F2A1B21FFA88F00096FDF73D
:104C20003FFA0A37BBB2A1B21FFA88F02A460096B3
:104C3000FDF736FABBB2A1B21FFA89F02A460096F8
:104C4000FDF72EFAD6E7C839142910D8A0F58271DD
:104C5000142901D801207047A0F1E601142901D8D8
:104C600002207047C838282801D8032070474FF029
:104C7000FF307047303A2F746573742E7478740067
:104C80000C1800203C000020301A00206D4ACB0395
:104C900002F160014A631268116841F0100111606D
:104CA000014668481A0C603001F0F2BD38B566481C
:104CB0000025016841F4001101600068614C00F4B6
:104CC000001062490090614870394FF48002206002
:104CD000CA609200CA605200CA605200CA605200A4
:104CE000CA60016821F001010160204600F084FFE4
:104CF00004F16000A0634020C4E901500001C4E950
:104D00000350400060618000C4E906050001206294
:104D1000042060620320C4E90A0520462563BDE83B
:104D2000384000F004BFF0B5494987B00025064679
:104D3000C1F85C5147F6C07292FAA2F24FF481704A
:104D4000B2FA82F290400B0393FAA3F30322B3FA70
:104D500083F39A4010433C4A543210600120886625
:104D60003949303908680001FCD53748016841F0FD
:104D700004010160016801F004010591016841F03E
:104D80000201016000684FF4007700F00200059016
:104D90000220CDE90070039005202E4C0490694656
:104DA0000295204601F00AFA201500906946204637
:104DB00001F004FA082000906946274801F0FEF946
:104DC000204C60342068416821F080014160204619
:104DD00001F0E1FB21482060C4E90175E560C4E908
:104DE00004561949A561E561103125620A6842F44B
:104DF00080420A60096801F480410591C16941F46B
:104E00008061C161204601F04EFF07B0F0BD10B5D2
:104E1000062000F055FD002201210F2000F05DFD6D
:104E2000BDE810400F2000F076BD10B50446FFF736
:104E3000EEFF2046FFF777FFBDE8104036E7014858
:104E400001F060B8F41C002030380240706002406D
:104E500000004742000402400008024000380040C1
:104E600038B5052000F02CFD00221146442000F04A
:104E700034FD442000F04FFDFC480025016841F45A
:104E8000800101600068FB4C00F480000090F8484D
:104E90002060016821F001010160204600F0ACFEB5
:104EA000A4F15800A0634FF0C06060604020C4E9E6
:104EB00002050001C4E904050001C4E906058000FB
:104EC0002062042060620320C4E90A0520462563AD
:104ED000BDE8384000F02BBEF8B5E4480025016875
:104EE00041F40011016000682A4600F400100090AF
:104EF00029462F2000F0F1FC2F2000F00CFDDD4EA4
:104F0000DC4C583EDC48A663C4E900054020C4E9F7
:104F100002050001C4E904050001C4E90605C0005A
:104F20002062042060620320C4E90A05204625634C
:104F300000F0FDFDB464A663F8BD2DE9F041CF4F4C
:104F40000C4605464FF480763146384601F07CFA2F
:104F50000028F9D0CA4E34600020C6E90105024697
:104F60004FF48051384601F074FAC2482022A0F173
:104F700058018864B168BDE8F041583805F087BA37
:104F8000BC4800F0BFBFBB4800F0BCBF4FF480700E
:104F900001F07ABA10B5B94C4FF48071204601F097
:104FA00053FA01280CD1B6480168002909DD002216
:104FB000A114204601F04DFAAE48A0F158018864D2
:104FC00010BD0121416010BD2DE9F0410122AB4D22
:104FD00016033146284601F03CFA01224021A94837
:104FE00001F037FAA64C206820382060A0682030F5
:104FF000A0602068002816DDAF153946284601F06C
:1050000023FA0028F9D000223146284601F021FA7F
:1050100098482022A0F158018864A168BDE8F041B9
:10502000583805F034BA00202060A060012060608C
:10503000BDE8F0819248406808B100207047012027
:1050400070472DE9F843894D0027286840F001009A
:1050500028602868874C00F00100603400904FF40D
:10506000A0500126C4E90006DFF810822146404620
:1050700001F0A4F8A815C4E900072146404601F054
:105080009DF8286840F00200286028687D4D00F0F7
:1050900002000090382020600220C4E901070320AC
:1050A000E060062020612146284601F087F8402074
:1050B000C4E900062146284601F080F82C1500229C
:1050C0002146404601F0C5F9012000F0DBFA01223B
:1050D0002146404601F0BDF901221103404601F08E
:1050E000B8F901224021284601F0B3F9BDE8F843A0
:1050F00000F0D6BA2DE9F041604E0C4607464FF459
:1051000080752946304601F09FF90028F9D000202B
:1051100000F0F1FA01221103304601F09AF9594DDD
:1051200000224021284601F094F9022000F0F8FA0C
:10513000384600F0F5FA200A00F0F2FAE0B200F08A
:10514000EFFA01224021284601F083F9BDE8F04141
:10515000012000F0D0BA70B5484E05464FF4807477
:105160002146304601F070F90028F9D0002000F007
:10517000C2FA01221103304601F06BF9414E0022C0
:105180004021304601F065F9032000F0C9FA2846B5
:1051900000F0C6FAFF2000F0C3FA4FF6FF7101EAF3
:1051A0000025FF2000F0BCFA40EA0504012240215E
:1051B000304601F04EF9012000F09DFA204670BD06
:1051C00010B500210420FFF795FF0021BDE8104035
:1051D00004208FE70420BEE770B5002440F60806DF
:1051E00031462046FFF786FF4FF400650BE031465D
:1051F0000020FFF77FFF022000F044FA2046641CE5
:10520000E4B2642804D80020FFF7A5FFA842EED13D
:1052100070BD2DE9F041194D4FF480763146284696
:1052200001F012F90028F9D0FF2000F079FA0024EB
:1052300040F604070AE00020FFF75CFF022000F0C0
:1052400021FA2046641CE4B2642805D80020FFF748
:1052500082FF39468842EED13146284601F0F4F803
:105260000028F9D000244FF4184615E030380240E9
:1052700088640240F01D0020B86002400000024037
:105280000C010020000402400320FFF733FF2046FA
:10529000641CE4B2642805D80320FFF75CFF3146A4
:1052A0008842F1D100244BF6813607E00520FFF754
:1052B00021FF2046641CE4B2642805D80520FFF7CE
:1052C0004AFF31468842F1D142F220010B20FFF71C
:1052D00011FFFFF775FF4FF4805400222146284646
:1052E00001F0B7F8FF2000F01BFAFF2000F018FAD9
:1052F000FF2000F015FAFF2000F012FA01222146EB
:10530000284601F0A6F8BDE8F041142000F0BAB933
:1053100070B5142000F0B6F9FF2000F001FAFA4C45
:1053200001221103204601F094F801224021F748A0
:1053300001F08FF8A5152946204601F085F80028D0
:10534000F9D0BDE87040142000F09CB970B542F26D
:1053500020010B20FFF7CEFE4FF402610020FFF783
:10536000C9FEE94C4FF480752946204601F06CF8DF
:105370000028F9D04FF4805500222946204601F03C
:1053800068F8532000F0CCF9EF2000F0C9F96E2046
:1053900000F0C6F9242000F0C3F9002000F0C0F9A5
:1053A000002000F0BDF9002000F0BAF9002000F064
:1053B000B7F9642000F066F901222946204601F081
:1053C00048F800222946204601F043F8452000F025
:1053D000A7F9782000F0A4F9692000F0A1F9742061
:1053E00000F09EF9002000F09BF9002000F098F9F1
:1053F000002000F095F9002000F092F9642000F000
:1054000041F901222946204601F023F800222946CD
:10541000204601F01EF8532000F082F9EF2000F042
:105420007FF96E2000F07CF9442000F079F900202B
:1054300000F076F9002000F073F9002000F070F918
:10544000002000F06DF9642000F01CF901222946CB
:10545000204600F0FEFF00222946204600F0F9FF1A
:10546000452000F05DF9782000F05AF9692000F03D
:1054700057F9742000F054F9002000F051F9002091
:1054800000F04EF9002000F04BF9002000F048F940
:10549000642000F0F7F829462046BDE8704001225C
:1054A00000F0D7BF38B5FFF733FF4FF4026100209B
:1054B000FFF720FE944C4FF480752946204600F0FB
:1054C000C3FF0028F9D04FF480550022294620461A
:1054D00000F0BFFF4D2000F023F9EA2000F020F992
:1054E0006D2000F01DF9542000F01AF9002000F0A2
:1054F00017F9002000F014F9002000F011F9002045
:1055000000F00EF9322000F0BDF8012229462046B5
:1055100000F09FFF0820FFF71EFEADF8000038BD29
:1055200070B57B4A4FF6FF7300211079C0F1FF0080
:1055300003EA0024204484B2084603EA0111155C02
:10554000401C2944C0B289B20428F6D30220FFF7D8
:10555000D1FD2146BDE870400B20CBE52DE9F0419F
:105560002024694F0546E60100223146384600F006
:1055700070FF03E015F8010B00F0D2F8641EE4B2EE
:10558000F8D201223146384600F063FFBDE8F04111
:10559000012240215D4800F05CBF2DE9F0414FF44D
:1055A000805741F604064FF418450BE029460320C6
:1055B000FFF7A0FD022000F065F82046641CE4B26D
:1055C000642811D80320FFF7C6FDA842EED10BE0F6
:1055D00000210320FFF78EFD022000F053F8204643
:1055E000641CE4B2642811D80220FFF7B4FD00283F
:1055F000EED10BE012210C20FFF77CFD022000F021
:1056000041F82046641CE4B2642810D80C20FFF74F
:10561000A2FD1228EED10AE00D20FFF76BFD02205B
:1056200000F030F82046641CE4B2642811D80D2044
:10563000FFF791FD39468842EED10AE00020FFF7DE
:1056400059FD022000F01EF82046641CE4B26428D4
:1056500011D80020FFF77FFD31468842EED10AE0E5
:105660000320FFF747FD022000F00CF82046641CE1
:10567000E4B2642805D80320FFF76DFD294688426F
:10568000EED1D5E400224FF6FF7306E00021491C5D
:1056900089B29942FBD3521C92B28242F6D3704730
:1056A00038B51C4900200A6842F400420A600968C3
:1056B0001A4C01F4004100911749216084F851000F
:1056C0004FF48271C4E901100221C4E903010121F0
:1056D00061614902A1611821C4E907100721C4E9E9
:1056E0000A016062204603F0EAFF2068016841F089
:1056F0004001016038BD094920B11020C861074848
:1057000003F0DDBF1820F9E700000240000402406A
:105710001801002040380240003C0040981D002045
:105720000EB501238DF8080000208DF804006FF0FD
:105730007F40009001AA02A9044804F033F908B19F
:1057400000200EBD9DF804000EBD0000981D002035
:10575000704710B5044654484FF47A710068B0FBA6
:10576000F1F000F004F900222146501E00F0B5F8D7
:10577000002010BD4D4810B5016841F40071016072
:10578000016841F480610160016841F48071016049
:10579000032000F095F80F20FFF7DBFFFFF7D8FF9D
:1057A000002010BD7047424A10B54FF0FF30106026
:1057B00000211160121D106011603D4A103A106006
:1057C0001160121D10601160121D10601160FFF752
:1057D000E9FF002010BD37480168491C016070478F
:1057E00034480068704731B5FFF7FAFF0446FFF709
:1057F000F7FF0099001B8842F9D338BD4FF0E02035
:10580000016921F00201016170474FF0E020016958
:1058100041F00201016170474FF0837070472648E4
:105820000068000C704724480068C0F30B00704704
:105830002148416841F00101416070471E484168BC
:1058400021F00101416070471B48416841F00201AD
:10585000416070471848416821F00201416070477B
:105860001548416841F004014160704712484168A1
:1058700021F0040141607047012090FAA0F10F4A25
:10588000B1FA81F102EB8101C1F8000470470020F8
:10589000012191FAA1F1094AB1FA81F102EB8101EA
:1058A000C1F800047047000024010020003C0240C1
:1058B0002038024020010020002004E000002742A0
:1058C000904A00F0070110684FF6FF03184040EAC5
:1058D00001208D49084310607047F0B4894B1B6864
:1058E000C3F30223C3F10704042C00D904241D1DB3
:1058F000072D01D2002300E0DB1E012606FA04F585
:105900006D1E0D409D409E40761E164045EA0601E4
:10591000F0BC00F0E7B8002809DB00F01F0201210D
:1059200091404009800000F1E020C0F8001170476C
:1059300000280DDB00F01F0201219140400980008A
:1059400000F1E020C0F88011BFF34F8FBFF36F8FDD
:105950007047BFF34F8F6B4801686B4A01F4E061F9
:10596000121D11430160BFF34F8F00BFFDE710B55B
:10597000401EB0F1807F01D3012010BD4FF0E02424
:1059800060610F21601700F0ADF80020A0610720D2
:105990002061002010BD5B4A41788C321160037891
:1059A000111D0A1DE3B143680B60017BC37A09072F
:1059B00041EA0361837A41EAC341437B41EA83417F
:1059C000837B41EA4341C37B41EA0341437A41EA95
:1059D0000321037A007841EA4301014311607047D3
:1059E000002008601060704746480068C0F302203D
:1059F0007047F0B5002804DB00F1E02090F80004C7
:105A000005E000F00F0000F1E02090F8140D04090B
:105A100001F00700C0F10701042900D90421051D88
:105A2000072D01D2002000E0C01E012724FA00F655
:105A300007FA01F56D1E2E4007FA00F56D1E254090
:105A400016601D60F0BD002809DB00F01F02012177
:105A500091404009800000F1E020C0F8001270473A
:105A600000280DDB4109890001F1E021D1F8001285
:105A700000F01F0201209040014201D00120704738
:105A800000207047002809DB00F01F02012191402F
:105A90004009800000F1E020C0F880127047002823
:105AA0000DDB4109890001F1E021D1F8001300F07C
:105AB0001F0201209040014201D0012070470020C8
:105AC00070474FF0E0210428086903D020F004005B
:105AD0000861704740F00400FAE7704710B5FFF71F
